{
  "_format": "hh3-artifact-1",
  "contractName": "Escrow",
  "sourceName": "contracts/Escrow.sol",
  "abi": [
    {
      "inputs": [
        {
          "internalType": "address",
          "name": "_arbiter",
          "type": "address"
        },
        {
          "internalType": "address",
          "name": "_beneficiary",
          "type": "address"
        },
        {
          "internalType": "address",
          "name": "_depositor",
          "type": "address"
        },
        {
          "internalType": "address",
          "name": "_tokenAddress",
          "type": "address"
        },
        {
          "internalType": "uint256",
          "name": "_amount",
          "type": "uint256"
        }
      ],
      "stateMutability": "nonpayable",
      "type": "constructor"
    },
    {
      "anonymous": false,
      "inputs": [
        {
          "indexed": true,
          "internalType": "address",
          "name": "depositor",
          "type": "address"
        },
        {
          "indexed": true,
          "internalType": "address",
          "name": "arbiter",
          "type": "address"
        },
        {
          "indexed": true,
          "internalType": "address",
          "name": "beneficiary",
          "type": "address"
        },
        {
          "indexed": false,
          "internalType": "address",
          "name": "token",
          "type": "address"
        },
        {
          "indexed": false,
          "internalType": "uint256",
          "name": "amount",
          "type": "uint256"
        },
        {
          "indexed": false,
          "internalType": "uint256",
          "name": "deadline",
          "type": "uint256"
        }
      ],
      "name": "AgreementCreated",
      "type": "event"
    },
    {
      "anonymous": false,
      "inputs": [
        {
          "indexed": true,
          "internalType": "address",
          "name": "depositor",
          "type": "address"
        },
        {
          "indexed": false,
          "internalType": "uint256",
          "name": "amount",
          "type": "uint256"
        }
      ],
      "name": "Funded",
      "type": "event"
    },
    {
      "anonymous": false,
      "inputs": [
        {
          "indexed": true,
          "internalType": "address",
          "name": "beneficiary",
          "type": "address"
        },
        {
          "indexed": false,
          "internalType": "uint256",
          "name": "amount",
          "type": "uint256"
        }
      ],
      "name": "Released",
      "type": "event"
    },
    {
      "inputs": [],
      "name": "amount",
      "outputs": [
        {
          "internalType": "uint256",
          "name": "",
          "type": "uint256"
        }
      ],
      "stateMutability": "view",
      "type": "function"
    },
    {
      "inputs": [],
      "name": "arbiter",
      "outputs": [
        {
          "internalType": "address",
          "name": "",
          "type": "address"
        }
      ],
      "stateMutability": "view",
      "type": "function"
    },
    {
      "inputs": [],
      "name": "beneficiary",
      "outputs": [
        {
          "internalType": "address",
          "name": "",
          "type": "address"
        }
      ],
      "stateMutability": "view",
      "type": "function"
    },
    {
      "inputs": [],
      "name": "deadline",
      "outputs": [
        {
          "internalType": "uint256",
          "name": "",
          "type": "uint256"
        }
      ],
      "stateMutability": "view",
      "type": "function"
    },
    {
      "inputs": [],
      "name": "depositor",
      "outputs": [
        {
          "internalType": "address",
          "name": "",
          "type": "address"
        }
      ],
      "stateMutability": "view",
      "type": "function"
    },
    {
      "inputs": [],
      "name": "fund",
      "outputs": [],
      "stateMutability": "payable",
      "type": "function"
    },
    {
      "inputs": [],
      "name": "isFunded",
      "outputs": [
        {
          "internalType": "bool",
          "name": "",
          "type": "bool"
        }
      ],
      "stateMutability": "view",
      "type": "function"
    },
    {
      "inputs": [],
      "name": "isReleased",
      "outputs": [
        {
          "internalType": "bool",
          "name": "",
          "type": "bool"
        }
      ],
      "stateMutability": "view",
      "type": "function"
    },
    {
      "inputs": [],
      "name": "release",
      "outputs": [],
      "stateMutability": "nonpayable",
      "type": "function"
    },
    {
      "inputs": [],
      "name": "token",
      "outputs": [
        {
          "internalType": "contract IERC20",
          "name": "",
          "type": "address"
        }
      ],
      "stateMutability": "view",
      "type": "function"
    }
  ],
  "bytecode": "0x608060405234801562000010575f80fd5b50604051620012033803806200120383398181016040528101906200003691906200027d565b845f806101000a81548173ffffffffffffffffffffffffffffffffffffffff021916908373ffffffffffffffffffffffffffffffffffffffff1602179055508360015f6101000a81548173ffffffffffffffffffffffffffffffffffffffff021916908373ffffffffffffffffffffffffffffffffffffffff1602179055508260025f6101000a81548173ffffffffffffffffffffffffffffffffffffffff021916908373ffffffffffffffffffffffffffffffffffffffff1602179055508160035f6101000a81548173ffffffffffffffffffffffffffffffffffffffff021916908373ffffffffffffffffffffffffffffffffffffffff160217905550806004819055506078426200014b91906200032e565b6005819055508373ffffffffffffffffffffffffffffffffffffffff168573ffffffffffffffffffffffffffffffffffffffff168473ffffffffffffffffffffffffffffffffffffffff167f0f4b1c2d2a0418a20c40828a05dbe491c5a118b65a0c0ea824116488f45b9bd78585600554604051620001cd939291906200038a565b60405180910390a45050505050620003c5565b5f80fd5b5f73ffffffffffffffffffffffffffffffffffffffff82169050919050565b5f6200020f82620001e4565b9050919050565b620002218162000203565b81146200022c575f80fd5b50565b5f815190506200023f8162000216565b92915050565b5f819050919050565b620002598162000245565b811462000264575f80fd5b50565b5f8151905062000277816200024e565b92915050565b5f805f805f60a08688031215620002995762000298620001e0565b5b5f620002a8888289016200022f565b9550506020620002bb888289016200022f565b9450506040620002ce888289016200022f565b9350506060620002e1888289016200022f565b9250506080620002f48882890162000267565b9150509295509295909350565b7f4e487b71000000000000000000000000000000000000000000000000000000005f52601160045260245ffd5b5f6200033a8262000245565b9150620003478362000245565b925082820190508082111562000362576200036162000301565b5b92915050565b620003738162000203565b82525050565b620003848162000245565b82525050565b5f6060820190506200039f5f83018662000368565b620003ae602083018562000379565b620003bd604083018462000379565b949350505050565b610e3080620003d35f395ff3fe608060405260043610610090575f3560e01c8063b60d428811610058578063b60d428814610152578063c7c4ff461461015c578063fa2a899714610186578063fc0c546a146101b0578063fe25e00a146101da57610090565b806329dcb0cf1461009457806338af3eed146100be5780637c654303146100e857806386d1a69f14610112578063aa8c217c14610128575b5f80fd5b34801561009f575f80fd5b506100a8610204565b6040516100b59190610845565b60405180910390f35b3480156100c9575f80fd5b506100d261020a565b6040516100df919061089d565b60405180910390f35b3480156100f3575f80fd5b506100fc61022f565b60405161010991906108d0565b60405180910390f35b34801561011d575f80fd5b50610126610241565b005b348015610133575f80fd5b5061013c6104f8565b6040516101499190610845565b60405180910390f35b61015a6104fe565b005b348015610167575f80fd5b506101706107ad565b60405161017d919061089d565b60405180910390f35b348015610191575f80fd5b5061019a6107d2565b6040516101a791906108d0565b60405180910390f35b3480156101bb575f80fd5b506101c46107e5565b6040516101d19190610944565b60405180910390f35b3480156101e5575f80fd5b506101ee61080a565b6040516101fb919061089d565b60405180910390f35b60055481565b60015f9054906101000a900473ffffffffffffffffffffffffffffffffffffffff1681565b60065f9054906101000a900460ff1681565b5f8054906101000a900473ffffffffffffffffffffffffffffffffffffffff1673ffffffffffffffffffffffffffffffffffffffff163373ffffffffffffffffffffffffffffffffffffffff16146102ce576040517f08c379a00000000000000000000000000000000000000000000000000000000081526004016102c5906109dd565b60405180910390fd5b60065f9054906101000a900460ff1661031c576040517f08c379a000000000000000000000000000000000000000000000000000000000815260040161031390610a45565b60405180910390fd5b600660019054906101000a900460ff161561036c576040517f08c379a000000000000000000000000000000000000000000000000000000000815260040161036390610aad565b60405180910390fd5b6001600660016101000a81548160ff02191690831515021790555060035f9054906101000a900473ffffffffffffffffffffffffffffffffffffffff1673ffffffffffffffffffffffffffffffffffffffff1663a9059cbb60015f9054906101000a900473ffffffffffffffffffffffffffffffffffffffff166004546040518363ffffffff1660e01b8152600401610406929190610acb565b6020604051808303815f875af1158015610422573d5f803e3d5ffd5b505050506040513d601f19601f820116820180604052508101906104469190610b20565b610485576040517f08c379a000000000000000000000000000000000000000000000000000000000815260040161047c90610bbb565b60405180910390fd5b60015f9054906101000a900473ffffffffffffffffffffffffffffffffffffffff1673ffffffffffffffffffffffffffffffffffffffff167fb21fb52d5749b80f3182f8c6992236b5e5576681880914484d7f4c9b062e619e6004546040516104ee9190610845565b60405180910390a2565b60045481565b60025f9054906101000a900473ffffffffffffffffffffffffffffffffffffffff1673ffffffffffffffffffffffffffffffffffffffff163373ffffffffffffffffffffffffffffffffffffffff161461058d576040517f08c379a000000000000000000000000000000000000000000000000000000000815260040161058490610c49565b60405180910390fd5b60055442106105d1576040517f08c379a00000000000000000000000000000000000000000000000000000000081526004016105c890610cd7565b60405180910390fd5b60065f9054906101000a900460ff1615610620576040517f08c379a000000000000000000000000000000000000000000000000000000000815260040161061790610d3f565b60405180910390fd5b60035f9054906101000a900473ffffffffffffffffffffffffffffffffffffffff1673ffffffffffffffffffffffffffffffffffffffff166323b872dd60025f9054906101000a900473ffffffffffffffffffffffffffffffffffffffff16306004546040518463ffffffff1660e01b81526004016106a193929190610d5d565b6020604051808303815f875af11580156106bd573d5f803e3d5ffd5b505050506040513d601f19601f820116820180604052508101906106e19190610b20565b610720576040517f08c379a000000000000000000000000000000000000000000000000000000000815260040161071790610ddc565b60405180910390fd5b600160065f6101000a81548160ff02191690831515021790555060025f9054906101000a900473ffffffffffffffffffffffffffffffffffffffff1673ffffffffffffffffffffffffffffffffffffffff167f5af8184bef8e4b45eb9f6ed7734d04da38ced226495548f46e0c8ff8d7d9a5246004546040516107a39190610845565b60405180910390a2565b60025f9054906101000a900473ffffffffffffffffffffffffffffffffffffffff1681565b600660019054906101000a900460ff1681565b60035f9054906101000a900473ffffffffffffffffffffffffffffffffffffffff1681565b5f8054906101000a900473ffffffffffffffffffffffffffffffffffffffff1681565b5f819050919050565b61083f8161082d565b82525050565b5f6020820190506108585f830184610836565b92915050565b5f73ffffffffffffffffffffffffffffffffffffffff82169050919050565b5f6108878261085e565b9050919050565b6108978161087d565b82525050565b5f6020820190506108b05f83018461088e565b92915050565b5f8115159050919050565b6108ca816108b6565b82525050565b5f6020820190506108e35f8301846108c1565b92915050565b5f819050919050565b5f61090c6109076109028461085e565b6108e9565b61085e565b9050919050565b5f61091d826108f2565b9050919050565b5f61092e82610913565b9050919050565b61093e81610924565b82525050565b5f6020820190506109575f830184610935565b92915050565b5f82825260208201905092915050565b7f4f6e6c7920617262697465722063616e2063616c6c20746869732066756e63745f8201527f696f6e0000000000000000000000000000000000000000000000000000000000602082015250565b5f6109c760238361095d565b91506109d28261096d565b604082019050919050565b5f6020820190508181035f8301526109f4816109bb565b9050919050565b7f457363726f77206973206e6f742066756e6465640000000000000000000000005f82015250565b5f610a2f60148361095d565b9150610a3a826109fb565b602082019050919050565b5f6020820190508181035f830152610a5c81610a23565b9050919050565b7f46756e647320616c72656164792072656c6561736564000000000000000000005f82015250565b5f610a9760168361095d565b9150610aa282610a63565b602082019050919050565b5f6020820190508181035f830152610ac481610a8b565b9050919050565b5f604082019050610ade5f83018561088e565b610aeb6020830184610836565b9392505050565b5f80fd5b610aff816108b6565b8114610b09575f80fd5b50565b5f81519050610b1a81610af6565b92915050565b5f60208284031215610b3557610b34610af2565b5b5f610b4284828501610b0c565b91505092915050565b7f546f6b656e207472616e7366657220746f2062656e65666963696172792066615f8201527f696c656400000000000000000000000000000000000000000000000000000000602082015250565b5f610ba560248361095d565b9150610bb082610b4b565b604082019050919050565b5f6020820190508181035f830152610bd281610b99565b9050919050565b7f4f6e6c79206465706f7369746f722063616e2063616c6c20746869732066756e5f8201527f6374696f6e000000000000000000000000000000000000000000000000000000602082015250565b5f610c3360258361095d565b9150610c3e82610bd9565b604082019050919050565b5f6020820190508181035f830152610c6081610c27565b9050919050565b7f5468652066756e64696e6720706572696f6420666f72207468697320616772655f8201527f656d656e742068617320657870697265642e0000000000000000000000000000602082015250565b5f610cc160328361095d565b9150610ccc82610c67565b604082019050919050565b5f6020820190508181035f830152610cee81610cb5565b9050919050565b7f457363726f7720697320616c72656164792066756e64656400000000000000005f82015250565b5f610d2960188361095d565b9150610d3482610cf5565b602082019050919050565b5f6020820190508181035f830152610d5681610d1d565b9050919050565b5f606082019050610d705f83018661088e565b610d7d602083018561088e565b610d8a6040830184610836565b949350505050565b7f546f6b656e207472616e73666572206661696c656400000000000000000000005f82015250565b5f610dc660158361095d565b9150610dd182610d92565b602082019050919050565b5f6020820190508181035f830152610df381610dba565b905091905056fea26469706673582212208543ed34f7fd1d01205f29dc8fab72a3ef5f1ac5d31235d5fa916e9ba1c8a49864736f6c63430008140033",
  "linkReferences": {},
  "deployedLinkReferences": {},
  "immutableReferences": {},
  "inputSourceName": "project/contracts/Escrow.sol",
  "buildInfoId": "solc-0_8_20-0a626d0ad71dc67b5178b691571f537faf863376"
}