{
  "_format": "hh3-artifact-1",
  "contractName": "Escrow",
  "sourceName": "contracts/Escrow.sol",
  "abi": [
    {
      "inputs": [
        {
          "internalType": "address",
          "name": "_arbiter",
          "type": "address"
        },
        {
          "internalType": "address",
          "name": "_beneficiary",
          "type": "address"
        },
        {
          "internalType": "address",
          "name": "_depositor",
          "type": "address"
        },
        {
          "internalType": "address",
          "name": "_tokenAddress",
          "type": "address"
        },
        {
          "internalType": "uint256",
          "name": "_amount",
          "type": "uint256"
        }
      ],
      "stateMutability": "nonpayable",
      "type": "constructor"
    },
    {
      "anonymous": false,
      "inputs": [
        {
          "indexed": true,
          "internalType": "address",
          "name": "depositor",
          "type": "address"
        },
        {
          "indexed": true,
          "internalType": "address",
          "name": "arbiter",
          "type": "address"
        },
        {
          "indexed": true,
          "internalType": "address",
          "name": "beneficiary",
          "type": "address"
        },
        {
          "indexed": false,
          "internalType": "address",
          "name": "token",
          "type": "address"
        },
        {
          "indexed": false,
          "internalType": "uint256",
          "name": "amount",
          "type": "uint256"
        }
      ],
      "name": "AgreementCreated",
      "type": "event"
    },
    {
      "anonymous": false,
      "inputs": [
        {
          "indexed": true,
          "internalType": "address",
          "name": "depositor",
          "type": "address"
        },
        {
          "indexed": false,
          "internalType": "uint256",
          "name": "amount",
          "type": "uint256"
        }
      ],
      "name": "Funded",
      "type": "event"
    },
    {
      "anonymous": false,
      "inputs": [
        {
          "indexed": true,
          "internalType": "address",
          "name": "beneficiary",
          "type": "address"
        },
        {
          "indexed": false,
          "internalType": "uint256",
          "name": "amount",
          "type": "uint256"
        }
      ],
      "name": "Released",
      "type": "event"
    },
    {
      "inputs": [],
      "name": "amount",
      "outputs": [
        {
          "internalType": "uint256",
          "name": "",
          "type": "uint256"
        }
      ],
      "stateMutability": "view",
      "type": "function"
    },
    {
      "inputs": [],
      "name": "arbiter",
      "outputs": [
        {
          "internalType": "address",
          "name": "",
          "type": "address"
        }
      ],
      "stateMutability": "view",
      "type": "function"
    },
    {
      "inputs": [],
      "name": "beneficiary",
      "outputs": [
        {
          "internalType": "address",
          "name": "",
          "type": "address"
        }
      ],
      "stateMutability": "view",
      "type": "function"
    },
    {
      "inputs": [],
      "name": "depositor",
      "outputs": [
        {
          "internalType": "address",
          "name": "",
          "type": "address"
        }
      ],
      "stateMutability": "view",
      "type": "function"
    },
    {
      "inputs": [],
      "name": "fund",
      "outputs": [],
      "stateMutability": "payable",
      "type": "function"
    },
    {
      "inputs": [],
      "name": "isFunded",
      "outputs": [
        {
          "internalType": "bool",
          "name": "",
          "type": "bool"
        }
      ],
      "stateMutability": "view",
      "type": "function"
    },
    {
      "inputs": [],
      "name": "isReleased",
      "outputs": [
        {
          "internalType": "bool",
          "name": "",
          "type": "bool"
        }
      ],
      "stateMutability": "view",
      "type": "function"
    },
    {
      "inputs": [],
      "name": "release",
      "outputs": [],
      "stateMutability": "nonpayable",
      "type": "function"
    },
    {
      "inputs": [],
      "name": "token",
      "outputs": [
        {
          "internalType": "contract IERC20",
          "name": "",
          "type": "address"
        }
      ],
      "stateMutability": "view",
      "type": "function"
    }
  ],
  "bytecode": "0x608060405234801562000010575f80fd5b506040516200106638038062001066833981810160405281019062000036919062000264565b845f806101000a81548173ffffffffffffffffffffffffffffffffffffffff021916908373ffffffffffffffffffffffffffffffffffffffff1602179055508360015f6101000a81548173ffffffffffffffffffffffffffffffffffffffff021916908373ffffffffffffffffffffffffffffffffffffffff1602179055508260025f6101000a81548173ffffffffffffffffffffffffffffffffffffffff021916908373ffffffffffffffffffffffffffffffffffffffff1602179055508160035f6101000a81548173ffffffffffffffffffffffffffffffffffffffff021916908373ffffffffffffffffffffffffffffffffffffffff160217905550806004819055508373ffffffffffffffffffffffffffffffffffffffff168573ffffffffffffffffffffffffffffffffffffffff168473ffffffffffffffffffffffffffffffffffffffff167f6ada8f01cbf64bb384946e818adff663e7e0246a135cad617ad5f0d01a7ce8318585604051620001b49291906200030a565b60405180910390a4505050505062000335565b5f80fd5b5f73ffffffffffffffffffffffffffffffffffffffff82169050919050565b5f620001f682620001cb565b9050919050565b6200020881620001ea565b811462000213575f80fd5b50565b5f815190506200022681620001fd565b92915050565b5f819050919050565b62000240816200022c565b81146200024b575f80fd5b50565b5f815190506200025e8162000235565b92915050565b5f805f805f60a0868803121562000280576200027f620001c7565b5b5f6200028f8882890162000216565b9550506020620002a28882890162000216565b9450506040620002b58882890162000216565b9350506060620002c88882890162000216565b9250506080620002db888289016200024e565b9150509295509295909350565b620002f381620001ea565b82525050565b62000304816200022c565b82525050565b5f6040820190506200031f5f830185620002e8565b6200032e6020830184620002f9565b9392505050565b610d2380620003435f395ff3fe608060405260043610610085575f3560e01c8063b60d428811610058578063b60d42881461011d578063c7c4ff4614610127578063fa2a899714610151578063fc0c546a1461017b578063fe25e00a146101a557610085565b806338af3eed146100895780637c654303146100b357806386d1a69f146100dd578063aa8c217c146100f3575b5f80fd5b348015610094575f80fd5b5061009d6101cf565b6040516100aa91906107ed565b60405180910390f35b3480156100be575f80fd5b506100c76101f4565b6040516100d49190610820565b60405180910390f35b3480156100e8575f80fd5b506100f1610206565b005b3480156100fe575f80fd5b506101076104bd565b6040516101149190610851565b60405180910390f35b6101256104c3565b005b348015610132575f80fd5b5061013b61072e565b60405161014891906107ed565b60405180910390f35b34801561015c575f80fd5b50610165610753565b6040516101729190610820565b60405180910390f35b348015610186575f80fd5b5061018f610766565b60405161019c91906108c5565b60405180910390f35b3480156101b0575f80fd5b506101b961078b565b6040516101c691906107ed565b60405180910390f35b60015f9054906101000a900473ffffffffffffffffffffffffffffffffffffffff1681565b60055f9054906101000a900460ff1681565b5f8054906101000a900473ffffffffffffffffffffffffffffffffffffffff1673ffffffffffffffffffffffffffffffffffffffff163373ffffffffffffffffffffffffffffffffffffffff1614610293576040517f08c379a000000000000000000000000000000000000000000000000000000000815260040161028a9061095e565b60405180910390fd5b60055f9054906101000a900460ff166102e1576040517f08c379a00000000000000000000000000000000000000000000000000000000081526004016102d8906109c6565b60405180910390fd5b600560019054906101000a900460ff1615610331576040517f08c379a000000000000000000000000000000000000000000000000000000000815260040161032890610a2e565b60405180910390fd5b6001600560016101000a81548160ff02191690831515021790555060035f9054906101000a900473ffffffffffffffffffffffffffffffffffffffff1673ffffffffffffffffffffffffffffffffffffffff1663a9059cbb60015f9054906101000a900473ffffffffffffffffffffffffffffffffffffffff166004546040518363ffffffff1660e01b81526004016103cb929190610a4c565b6020604051808303815f875af11580156103e7573d5f803e3d5ffd5b505050506040513d601f19601f8201168201806040525081019061040b9190610aa1565b61044a576040517f08c379a000000000000000000000000000000000000000000000000000000000815260040161044190610b3c565b60405180910390fd5b60015f9054906101000a900473ffffffffffffffffffffffffffffffffffffffff1673ffffffffffffffffffffffffffffffffffffffff167fb21fb52d5749b80f3182f8c6992236b5e5576681880914484d7f4c9b062e619e6004546040516104b39190610851565b60405180910390a2565b60045481565b60025f9054906101000a900473ffffffffffffffffffffffffffffffffffffffff1673ffffffffffffffffffffffffffffffffffffffff163373ffffffffffffffffffffffffffffffffffffffff1614610552576040517f08c379a000000000000000000000000000000000000000000000000000000000815260040161054990610bca565b60405180910390fd5b60055f9054906101000a900460ff16156105a1576040517f08c379a000000000000000000000000000000000000000000000000000000000815260040161059890610c32565b60405180910390fd5b60035f9054906101000a900473ffffffffffffffffffffffffffffffffffffffff1673ffffffffffffffffffffffffffffffffffffffff166323b872dd60025f9054906101000a900473ffffffffffffffffffffffffffffffffffffffff16306004546040518463ffffffff1660e01b815260040161062293929190610c50565b6020604051808303815f875af115801561063e573d5f803e3d5ffd5b505050506040513d601f19601f820116820180604052508101906106629190610aa1565b6106a1576040517f08c379a000000000000000000000000000000000000000000000000000000000815260040161069890610ccf565b60405180910390fd5b600160055f6101000a81548160ff02191690831515021790555060025f9054906101000a900473ffffffffffffffffffffffffffffffffffffffff1673ffffffffffffffffffffffffffffffffffffffff167f5af8184bef8e4b45eb9f6ed7734d04da38ced226495548f46e0c8ff8d7d9a5246004546040516107249190610851565b60405180910390a2565b60025f9054906101000a900473ffffffffffffffffffffffffffffffffffffffff1681565b600560019054906101000a900460ff1681565b60035f9054906101000a900473ffffffffffffffffffffffffffffffffffffffff1681565b5f8054906101000a900473ffffffffffffffffffffffffffffffffffffffff1681565b5f73ffffffffffffffffffffffffffffffffffffffff82169050919050565b5f6107d7826107ae565b9050919050565b6107e7816107cd565b82525050565b5f6020820190506108005f8301846107de565b92915050565b5f8115159050919050565b61081a81610806565b82525050565b5f6020820190506108335f830184610811565b92915050565b5f819050919050565b61084b81610839565b82525050565b5f6020820190506108645f830184610842565b92915050565b5f819050919050565b5f61088d610888610883846107ae565b61086a565b6107ae565b9050919050565b5f61089e82610873565b9050919050565b5f6108af82610894565b9050919050565b6108bf816108a5565b82525050565b5f6020820190506108d85f8301846108b6565b92915050565b5f82825260208201905092915050565b7f4f6e6c7920617262697465722063616e2063616c6c20746869732066756e63745f8201527f696f6e0000000000000000000000000000000000000000000000000000000000602082015250565b5f6109486023836108de565b9150610953826108ee565b604082019050919050565b5f6020820190508181035f8301526109758161093c565b9050919050565b7f457363726f77206973206e6f742066756e6465640000000000000000000000005f82015250565b5f6109b06014836108de565b91506109bb8261097c565b602082019050919050565b5f6020820190508181035f8301526109dd816109a4565b9050919050565b7f46756e647320616c72656164792072656c6561736564000000000000000000005f82015250565b5f610a186016836108de565b9150610a23826109e4565b602082019050919050565b5f6020820190508181035f830152610a4581610a0c565b9050919050565b5f604082019050610a5f5f8301856107de565b610a6c6020830184610842565b9392505050565b5f80fd5b610a8081610806565b8114610a8a575f80fd5b50565b5f81519050610a9b81610a77565b92915050565b5f60208284031215610ab657610ab5610a73565b5b5f610ac384828501610a8d565b91505092915050565b7f546f6b656e207472616e7366657220746f2062656e65666963696172792066615f8201527f696c656400000000000000000000000000000000000000000000000000000000602082015250565b5f610b266024836108de565b9150610b3182610acc565b604082019050919050565b5f6020820190508181035f830152610b5381610b1a565b9050919050565b7f4f6e6c79206465706f7369746f722063616e2063616c6c20746869732066756e5f8201527f6374696f6e000000000000000000000000000000000000000000000000000000602082015250565b5f610bb46025836108de565b9150610bbf82610b5a565b604082019050919050565b5f6020820190508181035f830152610be181610ba8565b9050919050565b7f457363726f7720697320616c72656164792066756e64656400000000000000005f82015250565b5f610c1c6018836108de565b9150610c2782610be8565b602082019050919050565b5f6020820190508181035f830152610c4981610c10565b9050919050565b5f606082019050610c635f8301866107de565b610c7060208301856107de565b610c7d6040830184610842565b949350505050565b7f546f6b656e207472616e73666572206661696c656400000000000000000000005f82015250565b5f610cb96015836108de565b9150610cc482610c85565b602082019050919050565b5f6020820190508181035f830152610ce681610cad565b905091905056fea2646970667358221220c4b25a744cfdb81b5fe298bcb5534a8ec30ece5bc97a5c31688153be4d37818d64736f6c63430008140033",
  "linkReferences": {},
  "deployedLinkReferences": {},
  "immutableReferences": {},
  "inputSourceName": "project/contracts/Escrow.sol",
  "buildInfoId": "solc-0_8_20-ba7bc6772c01b6eced7bf47a354d16b774b00454"
}